{
  "contractName": "Bank",
  "abi": [
    {
      "constant": true,
      "inputs": [
        {
          "name": "",
          "type": "address"
        }
      ],
      "name": "accounts2",
      "outputs": [
        {
          "name": "",
          "type": "uint256"
        }
      ],
      "payable": false,
      "stateMutability": "view",
      "type": "function",
      "signature": "0xa4117f8f"
    },
    {
      "inputs": [],
      "payable": false,
      "stateMutability": "nonpayable",
      "type": "constructor",
      "signature": "constructor"
    },
    {
      "constant": true,
      "inputs": [],
      "name": "totalAssets",
      "outputs": [
        {
          "name": "",
          "type": "uint256"
        }
      ],
      "payable": false,
      "stateMutability": "view",
      "type": "function",
      "signature": "0x01e1d114"
    },
    {
      "constant": false,
      "inputs": [],
      "name": "deposit",
      "outputs": [],
      "payable": true,
      "stateMutability": "payable",
      "type": "function",
      "signature": "0xd0e30db0"
    },
    {
      "constant": false,
      "inputs": [
        {
          "name": "_amount",
          "type": "uint256"
        }
      ],
      "name": "withdraw",
      "outputs": [],
      "payable": false,
      "stateMutability": "nonpayable",
      "type": "function",
      "signature": "0x2e1a7d4d"
    }
  ],
  "bytecode": "0x608060405234801561001057600080fd5b506103d7806100206000396000f3fe608060405260043610610062576000357c0100000000000000000000000000000000000000000000000000000000900463ffffffff16806301e1d114146100675780632e1a7d4d14610092578063a4117f8f146100cd578063d0e30db014610132575b600080fd5b34801561007357600080fd5b5061007c61013c565b6040518082815260200191505060405180910390f35b34801561009e57600080fd5b506100cb600480360360208110156100b557600080fd5b810190808035906020019092919050505061015b565b005b3480156100d957600080fd5b5061011c600480360360208110156100f057600080fd5b81019080803573ffffffffffffffffffffffffffffffffffffffff1690602001909291905050506102cd565b6040518082815260200191505060405180910390f35b61013a6102e5565b005b60003073ffffffffffffffffffffffffffffffffffffffff1631905090565b6000803373ffffffffffffffffffffffffffffffffffffffff1673ffffffffffffffffffffffffffffffffffffffff168152602001908152602001600020548111151515610237576040517f08c379a00000000000000000000000000000000000000000000000000000000081526004018080602001828103825260238152602001807f43616e6e6f74207769746864726177206d6f7265207468616e206465706f736981526020017f746564000000000000000000000000000000000000000000000000000000000081525060400191505060405180910390fd5b806000803373ffffffffffffffffffffffffffffffffffffffff1673ffffffffffffffffffffffffffffffffffffffff168152602001908152602001600020600082825403925050819055503373ffffffffffffffffffffffffffffffffffffffff166108fc829081150290604051600060405180830381858888f193505050501580156102c9573d6000803e3d6000fd5b5050565b60006020528060005260406000206000915090505481565b60003411151561035d576040517f08c379a000000000000000000000000000000000000000000000000000000000815260040180806020018281038252601c8152602001807f4d757374206465706f736974206d6f7265207468616e2030204554480000000081525060200191505060405180910390fd5b346000803373ffffffffffffffffffffffffffffffffffffffff1673ffffffffffffffffffffffffffffffffffffffff1681526020019081526020016000206000828254019250508190555056fea165627a7a72305820a6d65393aea10063422e8a0d802fb4dcb2b385a5e086912d983f7a74dc44f4d10029",
  "source": "pragma solidity ^0.5.0;\r\n\r\ncontract Bank {\r\n  mapping(address => uint256) public accounts2;\r\n\r\n    constructor() public {}\r\n\r\n\tfunction totalAssets() view external returns(uint256) {\r\n\t\treturn address(this).balance;\r\n\t}\r\n\r\n\tfunction deposit() payable external {\r\n\t\trequire(msg.value > 0, \"Must deposit more than 0 ETH\");\r\n\t\taccounts2[msg.sender] += msg.value;\r\n\t}\r\n\r\n\tfunction withdraw(uint256 _amount)  external {\r\n\t\trequire(_amount <= accounts2[msg.sender], \"Cannot withdraw more than deposited\");\r\n\r\n\t\taccounts2[msg.sender] -= _amount;\r\n\t\taddress(msg.sender).transfer(_amount);\r\n\t}\r\n}",
  "sourcePath": "C:/Users/User/project-pythagoras/src/contracts/Bank.sol",
  "compiler": {
    "name": "solc",
    "version": "0.5.0+commit.1d4f565a.Emscripten.clang"
  },
  "schemaVersion": "3.0.2",
  "updatedAt": "2021-09-22T19:18:33.514Z",
  "devdoc": {
    "methods": {}
  },
  "userdoc": {
    "methods": {}
  }
}