{
  "contractName": "PythagorasProject",
  "abi": [
    {
      "constant": true,
      "inputs": [
        {
          "name": "",
          "type": "uint256"
        }
      ],
      "name": "votingStart",
      "outputs": [
        {
          "name": "",
          "type": "uint256"
        }
      ],
      "payable": false,
      "stateMutability": "view",
      "type": "function",
      "signature": "0x00193006"
    },
    {
      "constant": true,
      "inputs": [],
      "name": "totalbalance1",
      "outputs": [
        {
          "name": "",
          "type": "uint256"
        }
      ],
      "payable": false,
      "stateMutability": "view",
      "type": "function",
      "signature": "0x05f0de4c"
    },
    {
      "constant": true,
      "inputs": [],
      "name": "name",
      "outputs": [
        {
          "name": "",
          "type": "string"
        }
      ],
      "payable": false,
      "stateMutability": "view",
      "type": "function",
      "signature": "0x06fdde03"
    },
    {
      "constant": true,
      "inputs": [
        {
          "name": "",
          "type": "uint256"
        }
      ],
      "name": "posts",
      "outputs": [
        {
          "name": "id",
          "type": "uint256"
        },
        {
          "name": "content",
          "type": "string"
        },
        {
          "name": "upvotes",
          "type": "uint256"
        },
        {
          "name": "downvotes",
          "type": "uint256"
        },
        {
          "name": "author",
          "type": "address"
        },
        {
          "name": "invest",
          "type": "address"
        },
        {
          "name": "amount",
          "type": "string"
        }
      ],
      "payable": false,
      "stateMutability": "view",
      "type": "function",
      "signature": "0x0b1e7f83"
    },
    {
      "constant": true,
      "inputs": [],
      "name": "x",
      "outputs": [
        {
          "name": "",
          "type": "address"
        }
      ],
      "payable": false,
      "stateMutability": "view",
      "type": "function",
      "signature": "0x0c55699c"
    },
    {
      "constant": true,
      "inputs": [],
      "name": "postCount",
      "outputs": [
        {
          "name": "",
          "type": "uint256"
        }
      ],
      "payable": false,
      "stateMutability": "view",
      "type": "function",
      "signature": "0x17906c2e"
    },
    {
      "constant": true,
      "inputs": [
        {
          "name": "",
          "type": "address"
        }
      ],
      "name": "etherBalanceOf",
      "outputs": [
        {
          "name": "",
          "type": "uint256"
        }
      ],
      "payable": false,
      "stateMutability": "view",
      "type": "function",
      "signature": "0x179fc99f"
    },
    {
      "constant": true,
      "inputs": [
        {
          "name": "",
          "type": "address"
        },
        {
          "name": "",
          "type": "uint256"
        }
      ],
      "name": "pinakas",
      "outputs": [
        {
          "name": "",
          "type": "bool"
        }
      ],
      "payable": false,
      "stateMutability": "view",
      "type": "function",
      "signature": "0x2798375e"
    },
    {
      "constant": true,
      "inputs": [
        {
          "name": "",
          "type": "address"
        }
      ],
      "name": "userpersentage",
      "outputs": [
        {
          "name": "",
          "type": "uint256"
        }
      ],
      "payable": false,
      "stateMutability": "view",
      "type": "function",
      "signature": "0x594d37d5"
    },
    {
      "constant": true,
      "inputs": [
        {
          "name": "",
          "type": "uint256"
        }
      ],
      "name": "y",
      "outputs": [
        {
          "name": "",
          "type": "address"
        }
      ],
      "payable": false,
      "stateMutability": "view",
      "type": "function",
      "signature": "0x6259e7e1"
    },
    {
      "constant": true,
      "inputs": [
        {
          "name": "",
          "type": "address"
        }
      ],
      "name": "isDeposited",
      "outputs": [
        {
          "name": "",
          "type": "bool"
        }
      ],
      "payable": false,
      "stateMutability": "view",
      "type": "function",
      "signature": "0x73732024"
    },
    {
      "constant": true,
      "inputs": [],
      "name": "userid",
      "outputs": [
        {
          "name": "",
          "type": "uint256"
        }
      ],
      "payable": false,
      "stateMutability": "view",
      "type": "function",
      "signature": "0x78071793"
    },
    {
      "constant": true,
      "inputs": [],
      "name": "totalbalance2",
      "outputs": [
        {
          "name": "",
          "type": "uint256"
        }
      ],
      "payable": false,
      "stateMutability": "view",
      "type": "function",
      "signature": "0x95bbbe4b"
    },
    {
      "constant": true,
      "inputs": [],
      "name": "currentTime",
      "outputs": [
        {
          "name": "",
          "type": "uint256"
        }
      ],
      "payable": false,
      "stateMutability": "view",
      "type": "function",
      "signature": "0xd18e81b3"
    },
    {
      "constant": true,
      "inputs": [],
      "name": "persentage",
      "outputs": [
        {
          "name": "",
          "type": "uint256"
        }
      ],
      "payable": false,
      "stateMutability": "view",
      "type": "function",
      "signature": "0xe35d0e65"
    },
    {
      "constant": true,
      "inputs": [
        {
          "name": "",
          "type": "address"
        }
      ],
      "name": "depositStart",
      "outputs": [
        {
          "name": "",
          "type": "uint256"
        }
      ],
      "payable": false,
      "stateMutability": "view",
      "type": "function",
      "signature": "0xff87930a"
    },
    {
      "constant": true,
      "inputs": [
        {
          "name": "",
          "type": "address"
        }
      ],
      "name": "notvote",
      "outputs": [
        {
          "name": "",
          "type": "bool"
        }
      ],
      "payable": false,
      "stateMutability": "view",
      "type": "function",
      "signature": "0xffe5b45a"
    },
    {
      "inputs": [],
      "payable": false,
      "stateMutability": "nonpayable",
      "type": "constructor",
      "signature": "constructor"
    },
    {
      "anonymous": false,
      "inputs": [
        {
          "indexed": false,
          "name": "id",
          "type": "uint256"
        },
        {
          "indexed": false,
          "name": "content",
          "type": "string"
        },
        {
          "indexed": false,
          "name": "upvotes",
          "type": "uint256"
        },
        {
          "indexed": false,
          "name": "downvotes",
          "type": "uint256"
        },
        {
          "indexed": false,
          "name": "author",
          "type": "address"
        },
        {
          "indexed": false,
          "name": "invest",
          "type": "address"
        },
        {
          "indexed": false,
          "name": "amount",
          "type": "string"
        }
      ],
      "name": "PostCreated",
      "type": "event",
      "signature": "0xce424fe7e5bd292ec9447746adb7dd996753a448cc63dc23ad5f92aec97212a7"
    },
    {
      "anonymous": false,
      "inputs": [
        {
          "indexed": false,
          "name": "id",
          "type": "uint256"
        },
        {
          "indexed": false,
          "name": "content",
          "type": "string"
        },
        {
          "indexed": false,
          "name": "upvotes",
          "type": "uint256"
        },
        {
          "indexed": false,
          "name": "downvotes",
          "type": "uint256"
        },
        {
          "indexed": false,
          "name": "author",
          "type": "address"
        },
        {
          "indexed": false,
          "name": "invest",
          "type": "address"
        },
        {
          "indexed": false,
          "name": "amount",
          "type": "string"
        }
      ],
      "name": "Upvoting",
      "type": "event",
      "signature": "0x2891438a37a47b33e4af1a63f48676040f921f7be5fcfd8d3ae8632738069995"
    },
    {
      "anonymous": false,
      "inputs": [
        {
          "indexed": false,
          "name": "id",
          "type": "uint256"
        },
        {
          "indexed": false,
          "name": "content",
          "type": "string"
        },
        {
          "indexed": false,
          "name": "upvotes",
          "type": "uint256"
        },
        {
          "indexed": false,
          "name": "downvotes",
          "type": "uint256"
        },
        {
          "indexed": false,
          "name": "author",
          "type": "address"
        },
        {
          "indexed": false,
          "name": "invest",
          "type": "address"
        },
        {
          "indexed": false,
          "name": "amount",
          "type": "string"
        }
      ],
      "name": "Downvoting",
      "type": "event",
      "signature": "0x4f9f5d9e8c35f09f517178a22aae0e361d9288c2c5eb37c586a8da89f3a2669c"
    },
    {
      "anonymous": false,
      "inputs": [
        {
          "indexed": true,
          "name": "user",
          "type": "address"
        },
        {
          "indexed": false,
          "name": "etherAmount",
          "type": "uint256"
        },
        {
          "indexed": false,
          "name": "timeStart",
          "type": "uint256"
        }
      ],
      "name": "Deposit",
      "type": "event",
      "signature": "0x90890809c654f11d6e72a28fa60149770a0d11ec6c92319d6ceb2bb0a4ea1a15"
    },
    {
      "anonymous": false,
      "inputs": [
        {
          "indexed": true,
          "name": "user",
          "type": "address"
        },
        {
          "indexed": false,
          "name": "etherAmount",
          "type": "uint256"
        },
        {
          "indexed": false,
          "name": "depositTime",
          "type": "uint256"
        },
        {
          "indexed": false,
          "name": "interest",
          "type": "uint256"
        }
      ],
      "name": "Withdraw",
      "type": "event",
      "signature": "0x02f25270a4d87bea75db541cdfe559334a275b4a233520ed6c0a2429667cca94"
    },
    {
      "constant": false,
      "inputs": [],
      "name": "deposit",
      "outputs": [],
      "payable": true,
      "stateMutability": "payable",
      "type": "function",
      "signature": "0xd0e30db0"
    },
    {
      "constant": false,
      "inputs": [
        {
          "name": "_content",
          "type": "string"
        },
        {
          "name": "invest",
          "type": "address"
        },
        {
          "name": "amount",
          "type": "string"
        }
      ],
      "name": "createPost",
      "outputs": [],
      "payable": false,
      "stateMutability": "nonpayable",
      "type": "function",
      "signature": "0xb7a9fd99"
    },
    {
      "constant": false,
      "inputs": [
        {
          "name": "_id",
          "type": "uint256"
        }
      ],
      "name": "Upvote",
      "outputs": [],
      "payable": true,
      "stateMutability": "payable",
      "type": "function",
      "signature": "0xc47e7d1a"
    },
    {
      "constant": false,
      "inputs": [
        {
          "name": "_id",
          "type": "uint256"
        }
      ],
      "name": "Downvote",
      "outputs": [],
      "payable": true,
      "stateMutability": "payable",
      "type": "function",
      "signature": "0x12468d8e"
    },
    {
      "constant": false,
      "inputs": [
        {
          "name": "amount",
          "type": "uint256"
        }
      ],
      "name": "withdraw",
      "outputs": [],
      "payable": true,
      "stateMutability": "payable",
      "type": "function",
      "signature": "0x2e1a7d4d"
    }
  ],
  "bytecode": "0x608060405260006001556000600255600060035560006004556000600555611f4060065573f27c00b9ef52b6adcbad02a1c3f7e7459925108e600760006101000a81548173ffffffffffffffffffffffffffffffffffffffff021916908373ffffffffffffffffffffffffffffffffffffffff1602179055503480156200008557600080fd5b506040805190810160405280601181526020017f5079746861676f72617350726f6a65637400000000000000000000000000000081525060009080519060200190620000d3929190620000da565b5062000189565b828054600181600116156101000203166002900490600052602060002090601f016020900481019282601f106200011d57805160ff19168380011785556200014e565b828001600101855582156200014e579182015b828111156200014d57825182559160200191906001019062000130565b5b5090506200015d919062000161565b5090565b6200018691905b808211156200018257600081600090555060010162000168565b5090565b90565b612f1680620001996000396000f3fe608060405260043610610127576000357c0100000000000000000000000000000000000000000000000000000000900463ffffffff1680621930061461012c57806305f0de4c1461017b57806306fdde03146101a65780630b1e7f83146102365780630c55699c146103d157806312468d8e1461042857806317906c2e14610456578063179fc99f146104815780632798375e146104e65780632e1a7d4d14610559578063594d37d5146105875780636259e7e1146105ec578063737320241461066757806378071793146106d057806395bbbe4b146106fb578063b7a9fd9914610726578063c47e7d1a146108a5578063d0e30db0146108d3578063d18e81b3146108dd578063e35d0e6514610908578063ff87930a14610933578063ffe5b45a14610998575b600080fd5b34801561013857600080fd5b506101656004803603602081101561014f57600080fd5b8101908080359060200190929190505050610a01565b6040518082815260200191505060405180910390f35b34801561018757600080fd5b50610190610a19565b6040518082815260200191505060405180910390f35b3480156101b257600080fd5b506101bb610a1f565b6040518080602001828103825283818151815260200191508051906020019080838360005b838110156101fb5780820151818401526020810190506101e0565b50505050905090810190601f1680156102285780820380516001836020036101000a031916815260200191505b509250505060405180910390f35b34801561024257600080fd5b5061026f6004803603602081101561025957600080fd5b8101908080359060200190929190505050610abd565b60405180888152602001806020018781526020018681526020018573ffffffffffffffffffffffffffffffffffffffff1673ffffffffffffffffffffffffffffffffffffffff1681526020018473ffffffffffffffffffffffffffffffffffffffff1673ffffffffffffffffffffffffffffffffffffffff16815260200180602001838103835289818151815260200191508051906020019080838360005b8381101561032957808201518184015260208101905061030e565b50505050905090810190601f1680156103565780820380516001836020036101000a031916815260200191505b50838103825284818151815260200191508051906020019080838360005b8381101561038f578082015181840152602081019050610374565b50505050905090810190601f1680156103bc5780820380516001836020036101000a031916815260200191505b50995050505050505050505060405180910390f35b3480156103dd57600080fd5b506103e6610c6f565b604051808273ffffffffffffffffffffffffffffffffffffffff1673ffffffffffffffffffffffffffffffffffffffff16815260200191505060405180910390f35b6104546004803603602081101561043e57600080fd5b8101908080359060200190929190505050610c95565b005b34801561046257600080fd5b5061046b6114d0565b6040518082815260200191505060405180910390f35b34801561048d57600080fd5b506104d0600480360360208110156104a457600080fd5b81019080803573ffffffffffffffffffffffffffffffffffffffff1690602001909291905050506114d6565b6040518082815260200191505060405180910390f35b3480156104f257600080fd5b5061053f6004803603604081101561050957600080fd5b81019080803573ffffffffffffffffffffffffffffffffffffffff169060200190929190803590602001909291905050506114ee565b604051808215151515815260200191505060405180910390f35b6105856004803603602081101561056f57600080fd5b810190808035906020019092919050505061151d565b005b34801561059357600080fd5b506105d6600480360360208110156105aa57600080fd5b81019080803573ffffffffffffffffffffffffffffffffffffffff169060200190929190505050611d18565b6040518082815260200191505060405180910390f35b3480156105f857600080fd5b506106256004803603602081101561060f57600080fd5b8101908080359060200190929190505050611d30565b604051808273ffffffffffffffffffffffffffffffffffffffff1673ffffffffffffffffffffffffffffffffffffffff16815260200191505060405180910390f35b34801561067357600080fd5b506106b66004803603602081101561068a57600080fd5b81019080803573ffffffffffffffffffffffffffffffffffffffff169060200190929190505050611d63565b604051808215151515815260200191505060405180910390f35b3480156106dc57600080fd5b506106e5611d83565b6040518082815260200191505060405180910390f35b34801561070757600080fd5b50610710611d89565b6040518082815260200191505060405180910390f35b34801561073257600080fd5b506108a36004803603606081101561074957600080fd5b810190808035906020019064010000000081111561076657600080fd5b82018360208201111561077857600080fd5b8035906020019184600183028401116401000000008311171561079a57600080fd5b91908080601f016020809104026020016040519081016040528093929190818152602001838380828437600081840152601f19601f820116905080830192505050505050509192919290803573ffffffffffffffffffffffffffffffffffffffff1690602001909291908035906020019064010000000081111561081d57600080fd5b82018360208201111561082f57600080fd5b8035906020019184600183028401116401000000008311171561085157600080fd5b91908080601f016020809104026020016040519081016040528093929190818152602001838380828437600081840152601f19601f820116905080830192505050505050509192919290505050611d8f565b005b6108d1600480360360208110156108bb57600080fd5b810190808035906020019092919050505061211b565b005b6108db612956565b005b3480156108e957600080fd5b506108f2612d17565b6040518082815260200191505060405180910390f35b34801561091457600080fd5b5061091d612d1d565b6040518082815260200191505060405180910390f35b34801561093f57600080fd5b506109826004803603602081101561095657600080fd5b81019080803573ffffffffffffffffffffffffffffffffffffffff169060200190929190505050612d23565b6040518082815260200191505060405180910390f35b3480156109a457600080fd5b506109e7600480360360208110156109bb57600080fd5b81019080803573ffffffffffffffffffffffffffffffffffffffff169060200190929190505050612d3b565b604051808215151515815260200191505060405180910390f35b600d6020528060005260406000206000915090505481565b60035481565b60008054600181600116156101000203166002900480601f016020809104026020016040519081016040528092919081815260200182805460018160011615610100020316600290048015610ab55780601f10610a8a57610100808354040283529160200191610ab5565b820191906000526020600020905b815481529060010190602001808311610a9857829003601f168201915b505050505081565b6008602052806000526040600020600091509050806000015490806001018054600181600116156101000203166002900480601f016020809104026020016040519081016040528092919081815260200182805460018160011615610100020316600290048015610b6f5780601f10610b4457610100808354040283529160200191610b6f565b820191906000526020600020905b815481529060010190602001808311610b5257829003601f168201915b5050505050908060020154908060030154908060040160009054906101000a900473ffffffffffffffffffffffffffffffffffffffff16908060050160009054906101000a900473ffffffffffffffffffffffffffffffffffffffff1690806006018054600181600116156101000203166002900480601f016020809104026020016040519081016040528092919081815260200182805460018160011615610100020316600290048015610c655780601f10610c3a57610100808354040283529160200191610c65565b820191906000526020600020905b815481529060010190602001808311610c4857829003601f168201915b5050505050905087565b600760009054906101000a900473ffffffffffffffffffffffffffffffffffffffff1681565b6000600b60003373ffffffffffffffffffffffffffffffffffffffff1673ffffffffffffffffffffffffffffffffffffffff16815260200190815260200160002054111515610d4c576040517f08c379a000000000000000000000000000000000000000000000000000000000815260040180806020018281038252601a8152602001807f4572726f722c206e6f2070726576696f7573206465706f73697400000000000081525060200191505060405180910390fd5b60001515600e60003373ffffffffffffffffffffffffffffffffffffffff1673ffffffffffffffffffffffffffffffffffffffff168152602001908152602001600020600083815260200190815260200160002060009054906101000a900460ff161515141515610e25576040517f08c379a00000000000000000000000000000000000000000000000000000000081526004018080602001828103825260188152602001807f4572726f722c207573657220616c726561647920766f7465000000000000000081525060200191505060405180910390fd5b600081118015610e3757506001548111155b1515610e4257600080fd5b600d6000828152602001908152602001600020544203600681905550611c2060065411151515610eda576040517f08c379a00000000000000000000000000000000000000000000000000000000081526004018080602001828103825260158152602001807f4572726f722c20766f74696e67206973206f766572000000000000000000000081525060200191505060405180910390fd5b610ee2612d5b565b6008600083815260200190815260200160002060e0604051908101604052908160008201548152602001600182018054600181600116156101000203166002900480601f016020809104026020016040519081016040528092919081815260200182805460018160011615610100020316600290048015610fa45780601f10610f7957610100808354040283529160200191610fa4565b820191906000526020600020905b815481529060010190602001808311610f8757829003601f168201915b5050505050815260200160028201548152602001600382015481526020016004820160009054906101000a900473ffffffffffffffffffffffffffffffffffffffff1673ffffffffffffffffffffffffffffffffffffffff1673ffffffffffffffffffffffffffffffffffffffff1681526020016005820160009054906101000a900473ffffffffffffffffffffffffffffffffffffffff1673ffffffffffffffffffffffffffffffffffffffff1673ffffffffffffffffffffffffffffffffffffffff168152602001600682018054600181600116156101000203166002900480601f0160208091040260200160405190810160405280929190818152602001828054600181600116156101000203166002900480156111065780601f106110db57610100808354040283529160200191611106565b820191906000526020600020905b8154815290600101906020018083116110e957829003601f168201915b5050505050815250509050600073f27c00b9ef52b6adcbad02a1c3f7e7459925108e90508073ffffffffffffffffffffffffffffffffffffffff166108fc349081150290604051600060405180830381858888f19350505050158015611170573d6000803e3d6000fd5b506000600b60003373ffffffffffffffffffffffffffffffffffffffff1673ffffffffffffffffffffffffffffffffffffffff168152602001908152602001600020549050808360600151018360600181815250506001600e60003373ffffffffffffffffffffffffffffffffffffffff1673ffffffffffffffffffffffffffffffffffffffff168152602001908152602001600020600086815260200190815260200160002060006101000a81548160ff0219169083151502179055508260086000868152602001908152602001600020600082015181600001556020820151816001019080519060200190611268929190612dc5565b50604082015181600201556060820151816003015560808201518160040160006101000a81548173ffffffffffffffffffffffffffffffffffffffff021916908373ffffffffffffffffffffffffffffffffffffffff16021790555060a08201518160050160006101000a81548173ffffffffffffffffffffffffffffffffffffffff021916908373ffffffffffffffffffffffffffffffffffffffff16021790555060c0820151816006019080519060200190611327929190612dc5565b509050507f4f9f5d9e8c35f09f517178a22aae0e361d9288c2c5eb37c586a8da89f3a2669c600154846020015185604001518660600151868860a001518960c0015160405180888152602001806020018781526020018681526020018573ffffffffffffffffffffffffffffffffffffffff1673ffffffffffffffffffffffffffffffffffffffff1681526020018473ffffffffffffffffffffffffffffffffffffffff1673ffffffffffffffffffffffffffffffffffffffff16815260200180602001838103835289818151815260200191508051906020019080838360005b83811015611423578082015181840152602081019050611408565b50505050905090810190601f1680156114505780820380516001836020036101000a031916815260200191505b50838103825284818151815260200191508051906020019080838360005b8381101561148957808201518184015260208101905061146e565b50505050905090810190601f1680156114b65780820380516001836020036101000a031916815260200191505b50995050505050505050505060405180910390a150505050565b60015481565b600b6020528060005260406000206000915090505481565b600e6020528160005260406000206020528060005260406000206000915091509054906101000a900460ff1681565b60011515600f60003373ffffffffffffffffffffffffffffffffffffffff1673ffffffffffffffffffffffffffffffffffffffff16815260200190815260200160002060009054906101000a900460ff1615151415156115e5576040517f08c379a000000000000000000000000000000000000000000000000000000000815260040180806020018281038252601a8152602001807f4572726f722c206e6f2070726576696f7573206465706f73697400000000000081525060200191505060405180910390fd5b6000600354111515611685576040517f08c379a00000000000000000000000000000000000000000000000000000000081526004018080602001828103825260248152602001807f4572726f722c20536f6d657468696e672077726f6e6720492063616e2066656581526020017f6c2069740000000000000000000000000000000000000000000000000000000081525060400191505060405180910390fd5b6000811115156116fd576040517f08c379a00000000000000000000000000000000000000000000000000000000081526004018080602001828103825260158152602001807f4572726f722c2070757420736f6d652076616c7565000000000000000000000081525060200191505060405180910390fd5b60006001541415156117a457600d60006001548152602001908152602001600020544203600681905550611c20600654101515156117a3576040517f08c379a00000000000000000000000000000000000000000000000000000000081526004018080602001828103825260168152602001807f4572726f722c206f6e20676f696e6720766f74696e670000000000000000000081525060200191505060405180910390fd5b5b60008090505b600254811115156118a257600a600082815260200190815260200160002060009054906101000a900473ffffffffffffffffffffffffffffffffffffffff16600760006101000a81548173ffffffffffffffffffffffffffffffffffffffff021916908373ffffffffffffffffffffffffffffffffffffffff160217905550600b6000600760009054906101000a900473ffffffffffffffffffffffffffffffffffffffff1673ffffffffffffffffffffffffffffffffffffffff1673ffffffffffffffffffffffffffffffffffffffff168152602001908152602001600020546004540160048190555080806001019150506117aa565b50600354606460045460035403028115156118b957fe5b04600581905550600060646005548115156118d057fe5b04600b60003373ffffffffffffffffffffffffffffffffffffffff1673ffffffffffffffffffffffffffffffffffffffff1681526020019081526020016000205401905060008190508183111515156119b7576040517f08c379a00000000000000000000000000000000000000000000000000000000081526004018080602001828103825260268152602001807f4572726f722c207769746864726177206d757374206265203c3d20757365724281526020017f616c616e6365000000000000000000000000000000000000000000000000000081525060400191505060405180910390fd5b3373ffffffffffffffffffffffffffffffffffffffff166108fc849081150290604051600060405180830381858888f193505050501580156119fd573d6000803e3d6000fd5b506000600960003373ffffffffffffffffffffffffffffffffffffffff1673ffffffffffffffffffffffffffffffffffffffff16815260200190815260200160002054420390506000662386f26fc10000600b60003373ffffffffffffffffffffffffffffffffffffffff1673ffffffffffffffffffffffffffffffffffffffff16815260200190815260200160002054811515611a9757fe5b046301e3373102905060008282029050856003540360038190555060008090505b60025481111515611c1e57600a600082815260200190815260200160002060009054906101000a900473ffffffffffffffffffffffffffffffffffffffff16600760006101000a81548173ffffffffffffffffffffffffffffffffffffffff021916908373ffffffffffffffffffffffffffffffffffffffff1602179055506064600554811515611b4557fe5b04600b6000600760009054906101000a900473ffffffffffffffffffffffffffffffffffffffff1673ffffffffffffffffffffffffffffffffffffffff1673ffffffffffffffffffffffffffffffffffffffff1681526020019081526020016000205401955085600b6000600760009054906101000a900473ffffffffffffffffffffffffffffffffffffffff1673ffffffffffffffffffffffffffffffffffffffff1673ffffffffffffffffffffffffffffffffffffffff168152602001908152602001600020819055508080600101915050611ab8565b50858403600b60003373ffffffffffffffffffffffffffffffffffffffff1673ffffffffffffffffffffffffffffffffffffffff168152602001908152602001600020819055506000600960003373ffffffffffffffffffffffffffffffffffffffff1673ffffffffffffffffffffffffffffffffffffffff1681526020019081526020016000208190555060006004819055503373ffffffffffffffffffffffffffffffffffffffff167f02f25270a4d87bea75db541cdfe559334a275b4a233520ed6c0a2429667cca9486858460405180848152602001838152602001828152602001935050505060405180910390a2505050505050565b600c6020528060005260406000206000915090505481565b600a6020528060005260406000206000915054906101000a900473ffffffffffffffffffffffffffffffffffffffff1681565b600f6020528060005260406000206000915054906101000a900460ff1681565b60025481565b60045481565b60008351111515611d9f57600080fd5b6000600b60003373ffffffffffffffffffffffffffffffffffffffff1673ffffffffffffffffffffffffffffffffffffffff16815260200190815260200160002054111515611e56576040517f08c379a000000000000000000000000000000000000000000000000000000000815260040180806020018281038252601a8152602001807f4572726f722c206e6f2070726576696f7573206465706f73697400000000000081525060200191505060405180910390fd5b60016000815480929190600101919050555060006008600060015481526020019081526020016000209050600154816000018190555083816001019080519060200190611ea4929190612e45565b506000816002018190555060008160030181905550338160040160006101000a81548173ffffffffffffffffffffffffffffffffffffffff021916908373ffffffffffffffffffffffffffffffffffffffff160217905550828160050160006101000a81548173ffffffffffffffffffffffffffffffffffffffff021916908373ffffffffffffffffffffffffffffffffffffffff16021790555081816006019080519060200190611f57929190612e45565b5042600d600060015481526020019081526020016000205401600d60006001548152602001908152602001600020819055507fce424fe7e5bd292ec9447746adb7dd996753a448cc63dc23ad5f92aec97212a76001548560008033888860405180888152602001806020018781526020018681526020018573ffffffffffffffffffffffffffffffffffffffff1673ffffffffffffffffffffffffffffffffffffffff1681526020018473ffffffffffffffffffffffffffffffffffffffff1673ffffffffffffffffffffffffffffffffffffffff16815260200180602001838103835289818151815260200191508051906020019080838360005b8381101561206e578082015181840152602081019050612053565b50505050905090810190601f16801561209b5780820380516001836020036101000a031916815260200191505b50838103825284818151815260200191508051906020019080838360005b838110156120d45780820151818401526020810190506120b9565b50505050905090810190601f1680156121015780820380516001836020036101000a031916815260200191505b50995050505050505050505060405180910390a150505050565b6000600b60003373ffffffffffffffffffffffffffffffffffffffff1673ffffffffffffffffffffffffffffffffffffffff168152602001908152602001600020541115156121d2576040517f08c379a000000000000000000000000000000000000000000000000000000000815260040180806020018281038252601a8152602001807f4572726f722c206e6f2070726576696f7573206465706f73697400000000000081525060200191505060405180910390fd5b60001515600e60003373ffffffffffffffffffffffffffffffffffffffff1673ffffffffffffffffffffffffffffffffffffffff168152602001908152602001600020600083815260200190815260200160002060009054906101000a900460ff1615151415156122ab576040517f08c379a00000000000000000000000000000000000000000000000000000000081526004018080602001828103825260188152602001807f4572726f722c207573657220616c726561647920766f7465000000000000000081525060200191505060405180910390fd5b6000811180156122bd57506001548111155b15156122c857600080fd5b600d6000828152602001908152602001600020544203600681905550611c2060065411151515612360576040517f08c379a00000000000000000000000000000000000000000000000000000000081526004018080602001828103825260158152602001807f4572726f722c20766f74696e67206973206f766572000000000000000000000081525060200191505060405180910390fd5b612368612d5b565b6008600083815260200190815260200160002060e0604051908101604052908160008201548152602001600182018054600181600116156101000203166002900480601f01602080910402602001604051908101604052809291908181526020018280546001816001161561010002031660029004801561242a5780601f106123ff5761010080835404028352916020019161242a565b820191906000526020600020905b81548152906001019060200180831161240d57829003601f168201915b5050505050815260200160028201548152602001600382015481526020016004820160009054906101000a900473ffffffffffffffffffffffffffffffffffffffff1673ffffffffffffffffffffffffffffffffffffffff1673ffffffffffffffffffffffffffffffffffffffff1681526020016005820160009054906101000a900473ffffffffffffffffffffffffffffffffffffffff1673ffffffffffffffffffffffffffffffffffffffff1673ffffffffffffffffffffffffffffffffffffffff168152602001600682018054600181600116156101000203166002900480601f01602080910402602001604051908101604052809291908181526020018280546001816001161561010002031660029004801561258c5780601f106125615761010080835404028352916020019161258c565b820191906000526020600020905b81548152906001019060200180831161256f57829003601f168201915b5050505050815250509050600073f27c00b9ef52b6adcbad02a1c3f7e7459925108e90508073ffffffffffffffffffffffffffffffffffffffff166108fc349081150290604051600060405180830381858888f193505050501580156125f6573d6000803e3d6000fd5b506000600b60003373ffffffffffffffffffffffffffffffffffffffff1673ffffffffffffffffffffffffffffffffffffffff168152602001908152602001600020549050808360400151018360400181815250508260086000868152602001908152602001600020600082015181600001556020820151816001019080519060200190612685929190612dc5565b50604082015181600201556060820151816003015560808201518160040160006101000a81548173ffffffffffffffffffffffffffffffffffffffff021916908373ffffffffffffffffffffffffffffffffffffffff16021790555060a08201518160050160006101000a81548173ffffffffffffffffffffffffffffffffffffffff021916908373ffffffffffffffffffffffffffffffffffffffff16021790555060c0820151816006019080519060200190612744929190612dc5565b509050506001600e60003373ffffffffffffffffffffffffffffffffffffffff1673ffffffffffffffffffffffffffffffffffffffff168152602001908152602001600020600086815260200190815260200160002060006101000a81548160ff0219169083151502179055507f2891438a37a47b33e4af1a63f48676040f921f7be5fcfd8d3ae8632738069995600154846020015185604001518660600151868860a001518960c0015160405180888152602001806020018781526020018681526020018573ffffffffffffffffffffffffffffffffffffffff1673ffffffffffffffffffffffffffffffffffffffff1681526020018473ffffffffffffffffffffffffffffffffffffffff1673ffffffffffffffffffffffffffffffffffffffff16815260200180602001838103835289818151815260200191508051906020019080838360005b838110156128a957808201518184015260208101905061288e565b50505050905090810190601f1680156128d65780820380516001836020036101000a031916815260200191505b50838103825284818151815260200191508051906020019080838360005b8381101561290f5780820151818401526020810190506128f4565b50505050905090810190601f16801561293c5780820380516001836020036101000a031916815260200191505b50995050505050505050505060405180910390a150505050565b662386f26fc1000034101515156129fb576040517f08c379a00000000000000000000000000000000000000000000000000000000081526004018080602001828103825260228152602001807f4572726f722c206465706f736974206d757374206265203e3d20302e3031204581526020017f544800000000000000000000000000000000000000000000000000000000000081525060400191505060405180910390fd5b34600b60003373ffffffffffffffffffffffffffffffffffffffff1673ffffffffffffffffffffffffffffffffffffffff1681526020019081526020016000205401600b60003373ffffffffffffffffffffffffffffffffffffffff1673ffffffffffffffffffffffffffffffffffffffff1681526020019081526020016000208190555060008090505b60025481111515612b67573373ffffffffffffffffffffffffffffffffffffffff16600a600083815260200190815260200160002060009054906101000a900473ffffffffffffffffffffffffffffffffffffffff1673ffffffffffffffffffffffffffffffffffffffff16141515612b5a5760016002540160028190555033600a6000600254815260200190815260200160002060006101000a81548173ffffffffffffffffffffffffffffffffffffffff021916908373ffffffffffffffffffffffffffffffffffffffff1602179055505b8080600101915050612a86565b5060008090505b60025481111515612c6657600a600082815260200190815260200160002060009054906101000a900473ffffffffffffffffffffffffffffffffffffffff16600760006101000a81548173ffffffffffffffffffffffffffffffffffffffff021916908373ffffffffffffffffffffffffffffffffffffffff160217905550600b6000600760009054906101000a900473ffffffffffffffffffffffffffffffffffffffff1673ffffffffffffffffffffffffffffffffffffffff1673ffffffffffffffffffffffffffffffffffffffff16815260200190815260200160002054600354016003819055508080600101915050612b6e565b506001600f60003373ffffffffffffffffffffffffffffffffffffffff1673ffffffffffffffffffffffffffffffffffffffff16815260200190815260200160002060006101000a81548160ff0219169083151502179055503373ffffffffffffffffffffffffffffffffffffffff167f90890809c654f11d6e72a28fa60149770a0d11ec6c92319d6ceb2bb0a4ea1a153442604051808381526020018281526020019250505060405180910390a2565b60065481565b60055481565b60096020528060005260406000206000915090505481565b60106020528060005260406000206000915054906101000a900460ff1681565b60e06040519081016040528060008152602001606081526020016000815260200160008152602001600073ffffffffffffffffffffffffffffffffffffffff168152602001600073ffffffffffffffffffffffffffffffffffffffff168152602001606081525090565b828054600181600116156101000203166002900490600052602060002090601f016020900481019282601f10612e0657805160ff1916838001178555612e34565b82800160010185558215612e34579182015b82811115612e33578251825591602001919060010190612e18565b5b509050612e419190612ec5565b5090565b828054600181600116156101000203166002900490600052602060002090601f016020900481019282601f10612e8657805160ff1916838001178555612eb4565b82800160010185558215612eb4579182015b82811115612eb3578251825591602001919060010190612e98565b5b509050612ec19190612ec5565b5090565b612ee791905b80821115612ee3576000816000905550600101612ecb565b5090565b9056fea165627a7a72305820253bff2cef817b381e9bf27acc30bb6dc9631e0b073e30ccdaf9e479447c83ac0029",
  "source": "pragma solidity ^0.5.0;\r\n\r\ncontract PythagorasProject {\r\n  \r\n\r\n  string public name;\r\n  uint public postCount = 0;\r\n  uint public userid = 0;\r\n  uint public totalbalance1 = 0;\r\n  uint public totalbalance2 = 0;\r\n  uint public persentage = 0;\r\n  uint public currentTime = 8000;\r\n  address public x = 0xf27C00B9Ef52b6ADCBAd02a1C3F7e7459925108e;\r\n  mapping(uint => Post) public posts;\r\n  mapping(address => uint) public depositStart;\r\n  mapping(uint => address) public y;\r\n  mapping(address => uint) public etherBalanceOf;\r\n  mapping(address => uint) public userpersentage;\r\n  mapping(uint => uint) public votingStart;\r\n  mapping(address => mapping(uint256 => bool)) public pinakas;\r\n\r\n\r\n\r\n  mapping(address => bool) public isDeposited;\r\n  mapping(address => bool) public notvote;\r\n\r\n  \r\n\r\n  struct Post {\r\n    uint id;\r\n    string content;\r\n    uint upvotes;\r\n    uint downvotes;\r\n    address payable author;\r\n    address payable invest;\r\n    string amount;\r\n  }\r\n\r\n  event PostCreated(\r\n      uint id,\r\n      string content,\r\n      uint upvotes,\r\n      uint downvotes,\r\n      address payable author,\r\n      address payable invest,\r\n      string amount\r\n    );\r\n\r\n  event Upvoting(\r\n      uint id,\r\n      string content,\r\n      uint upvotes,\r\n      uint downvotes,\r\n      address payable author,\r\n      address payable invest,\r\n      string  amount\r\n    );\r\n\r\n  event Downvoting(\r\n      uint id,\r\n      string content,\r\n      uint upvotes,\r\n      uint downvotes,\r\n      address payable author,\r\n      address payable invest,\r\n      string  amount\r\n    );\r\n\r\n  event Deposit(\r\n      address indexed user, \r\n      uint etherAmount, \r\n      uint timeStart\r\n    );\r\n\r\n  event Withdraw(\r\n      address indexed user, \r\n      uint etherAmount, \r\n      uint depositTime, \r\n      uint interest\r\n    );\r\n\r\n\r\n\r\n  constructor() public{\r\n    name = \"PythagorasProject\";\r\n  }\r\n  \r\n\r\n  function deposit() payable public {\r\n\r\n    require(msg.value>=1e16, 'Error, deposit must be >= 0.01 ETH');\r\n    \r\n\r\n    etherBalanceOf[msg.sender] = etherBalanceOf[msg.sender] + msg.value;\r\n    for (uint i=0; i<=userid; i++) {\r\n      if (y[i]!=msg.sender) {\r\n        userid = userid + 1 ;\r\n        y[userid]=msg.sender;\r\n      }\r\n    }\r\n    for (uint i=0; i<=userid; i++) {\r\n      x=y[i];\r\n      totalbalance1=totalbalance1+etherBalanceOf[x];\r\n    }\r\n\r\n\r\n    isDeposited[msg.sender] = true; //activate deposit status\r\n    emit Deposit(msg.sender, msg.value, block.timestamp);\r\n  }\r\n\r\n  \r\n\r\n\r\n\r\n  function createPost(string memory _content, address payable invest, string memory amount) public {\r\n    // Require valid content \r\n    require(bytes(_content).length > 0);\r\n    require(etherBalanceOf[msg.sender]>0, 'Error, no previous deposit');\r\n    // increment the post count =\r\n    postCount ++;\r\n    //create the post\r\n    Post storage post = posts[postCount];\r\n    post.id=postCount;\r\n    post.content=_content;\r\n    post.upvotes=0;\r\n    post.downvotes=0;\r\n    post.author=(msg.sender);\r\n    post.invest=(invest);\r\n    post.amount=amount;\r\n    votingStart[postCount] = votingStart[postCount] + block.timestamp;\r\n    //trigger event\r\n    emit PostCreated(postCount, _content, 0, 0, msg.sender, invest, amount);\r\n  }\r\n\r\n  function Upvote(uint _id) public payable{\r\n    require(etherBalanceOf[msg.sender]>0, 'Error, no previous deposit');\r\n    require(pinakas[msg.sender][_id]==false, 'Error, user already vote');\r\n    require(_id > 0 && _id <= postCount);\r\n    //giving 12h for each voting\r\n    currentTime = block.timestamp - votingStart[_id];\r\n    require(currentTime <= 7200, 'Error, voting is over');\r\n    //fetch the post\r\n    Post memory _post = posts [_id];\r\n    //fetch the author \r\n    address payable _author = 0xf27C00B9Ef52b6ADCBAd02a1C3F7e7459925108e;\r\n    //Pay the author by sending them ether\r\n    address(_author).transfer(msg.value); \r\n    //Incremet the tip amount \r\n    uint userBalance = etherBalanceOf[msg.sender];\r\n    _post.upvotes = _post.upvotes + userBalance;\r\n    //update the post\r\n    posts[_id] = _post;\r\n    pinakas[msg.sender][_id]=true;\r\n    //allow to vote only once\r\n    emit Upvoting(postCount, _post.content, _post.upvotes,_post.downvotes , _author, _post.invest, _post.amount);\r\n  }\r\n\r\n  function Downvote(uint _id) public payable{\r\n    require(etherBalanceOf[msg.sender]>0, 'Error, no previous deposit');\r\n    require(pinakas[msg.sender][_id]==false, 'Error, user already vote');\r\n    require(_id > 0 && _id <= postCount);\r\n    //giving 12h for each voting\r\n    currentTime = block.timestamp - votingStart[_id];\r\n    require(currentTime <= 7200, 'Error, voting is over');\r\n    //fetch the post\r\n    Post memory _post = posts [_id];\r\n    //fetch the author \r\n    address payable _author = 0xf27C00B9Ef52b6ADCBAd02a1C3F7e7459925108e;\r\n    //Pay the author by sending them ether\r\n    address(_author).transfer(msg.value); \r\n    //Incremet the tip amount \r\n    uint userBalance = etherBalanceOf[msg.sender];\r\n    _post.downvotes = _post.downvotes + userBalance;\r\n    //update the post\r\n    //allow to vote only once\r\n    pinakas[msg.sender][_id]=true;\r\n    posts[_id] = _post;\r\n    emit Downvoting(postCount, _post.content, _post.upvotes, _post.downvotes , _author, _post.invest, _post.amount);\r\n  }\r\n\r\n  function withdraw(uint amount) payable public {\r\n    require(isDeposited[msg.sender]==true, 'Error, no previous deposit');\r\n    require(totalbalance1>0, 'Error, Something wrong I can feel it');\r\n    require(amount>0, 'Error, put some value');\r\n    \r\n    if (postCount!=0){\r\n      currentTime = block.timestamp - votingStart[postCount];\r\n      require(currentTime >= 7200, 'Error, on going voting');\r\n    }\r\n\r\n    for (uint i=0; i<=userid; i++) {\r\n      x=y[i];\r\n      totalbalance2=totalbalance2+etherBalanceOf[x];\r\n    }\r\n    persentage=((totalbalance1-totalbalance2)*100)/totalbalance1;\r\n    uint userBalance = etherBalanceOf[msg.sender] + (persentage/100);\r\n    uint userBalanceSender = userBalance;\r\n    require(amount<=userBalance, 'Error, withdraw must be <= userBalance');\r\n    msg.sender.transfer(amount); //eth back to user\r\n\r\n\r\n    //check user's hodl time\r\n    uint depositTime = block.timestamp - depositStart[msg.sender];\r\n\r\n    uint interestPerSecond = 31668017 * (etherBalanceOf[msg.sender] / 1e16);\r\n    uint interest = interestPerSecond * depositTime;\r\n\r\n    //send funds to user\r\n    \r\n    totalbalance1=totalbalance1-amount;\r\n    for (uint i=0; i<=userid; i++) {\r\n      x=y[i];\r\n      userBalance = etherBalanceOf[x] + (persentage/100);\r\n      etherBalanceOf[x] = userBalance;\r\n    }\r\n    etherBalanceOf[msg.sender] = userBalanceSender-amount;\r\n\r\n    //reset depositer data\r\n    depositStart[msg.sender] = 0;\r\n    totalbalance2 = 0; \r\n\r\n    emit Withdraw(msg.sender, userBalance, depositTime, interest);\r\n  }\r\n\r\n}",
  "sourcePath": "C:/Users/User/testdefi/src/contracts/PythagorasProject.sol",
  "compiler": {
    "name": "solc",
    "version": "0.5.0+commit.1d4f565a.Emscripten.clang"
  },
  "schemaVersion": "3.0.2",
  "updatedAt": "2022-01-06T02:14:50.590Z",
  "devdoc": {
    "methods": {}
  },
  "userdoc": {
    "methods": {}
  }
}